{
  "_format": "hh-sol-artifact-1",
  "contractName": "TokenPair",
  "sourceName": "contracts/TokenPair.sol",
  "abi": [
    {
      "inputs": [],
      "stateMutability": "nonpayable",
      "type": "constructor"
    },
    {
      "inputs": [
        {
          "internalType": "address",
          "name": "spender",
          "type": "address"
        },
        {
          "internalType": "uint256",
          "name": "allowance",
          "type": "uint256"
        },
        {
          "internalType": "uint256",
          "name": "needed",
          "type": "uint256"
        }
      ],
      "name": "ERC20InsufficientAllowance",
      "type": "error"
    },
    {
      "inputs": [
        {
          "internalType": "address",
          "name": "sender",
          "type": "address"
        },
        {
          "internalType": "uint256",
          "name": "balance",
          "type": "uint256"
        },
        {
          "internalType": "uint256",
          "name": "needed",
          "type": "uint256"
        }
      ],
      "name": "ERC20InsufficientBalance",
      "type": "error"
    },
    {
      "inputs": [
        {
          "internalType": "address",
          "name": "approver",
          "type": "address"
        }
      ],
      "name": "ERC20InvalidApprover",
      "type": "error"
    },
    {
      "inputs": [
        {
          "internalType": "address",
          "name": "receiver",
          "type": "address"
        }
      ],
      "name": "ERC20InvalidReceiver",
      "type": "error"
    },
    {
      "inputs": [
        {
          "internalType": "address",
          "name": "sender",
          "type": "address"
        }
      ],
      "name": "ERC20InvalidSender",
      "type": "error"
    },
    {
      "inputs": [
        {
          "internalType": "address",
          "name": "spender",
          "type": "address"
        }
      ],
      "name": "ERC20InvalidSpender",
      "type": "error"
    },
    {
      "inputs": [],
      "name": "ReentrancyGuardReentrantCall",
      "type": "error"
    },
    {
      "anonymous": false,
      "inputs": [
        {
          "indexed": true,
          "internalType": "address",
          "name": "owner",
          "type": "address"
        },
        {
          "indexed": true,
          "internalType": "address",
          "name": "spender",
          "type": "address"
        },
        {
          "indexed": false,
          "internalType": "uint256",
          "name": "value",
          "type": "uint256"
        }
      ],
      "name": "Approval",
      "type": "event"
    },
    {
      "anonymous": false,
      "inputs": [
        {
          "indexed": true,
          "internalType": "address",
          "name": "sender",
          "type": "address"
        },
        {
          "indexed": false,
          "internalType": "uint256",
          "name": "amountA",
          "type": "uint256"
        },
        {
          "indexed": false,
          "internalType": "uint256",
          "name": "amountB",
          "type": "uint256"
        },
        {
          "indexed": true,
          "internalType": "address",
          "name": "to",
          "type": "address"
        }
      ],
      "name": "Burn",
      "type": "event"
    },
    {
      "anonymous": false,
      "inputs": [
        {
          "indexed": true,
          "internalType": "address",
          "name": "sender",
          "type": "address"
        },
        {
          "indexed": false,
          "internalType": "uint256",
          "name": "amountA",
          "type": "uint256"
        },
        {
          "indexed": false,
          "internalType": "uint256",
          "name": "amountB",
          "type": "uint256"
        }
      ],
      "name": "Mint",
      "type": "event"
    },
    {
      "anonymous": false,
      "inputs": [
        {
          "indexed": true,
          "internalType": "address",
          "name": "sender",
          "type": "address"
        },
        {
          "indexed": false,
          "internalType": "uint256",
          "name": "amountAIn",
          "type": "uint256"
        },
        {
          "indexed": false,
          "internalType": "uint256",
          "name": "amountBIn",
          "type": "uint256"
        },
        {
          "indexed": false,
          "internalType": "uint256",
          "name": "amountAOut",
          "type": "uint256"
        },
        {
          "indexed": false,
          "internalType": "uint256",
          "name": "amountBOut",
          "type": "uint256"
        },
        {
          "indexed": true,
          "internalType": "address",
          "name": "to",
          "type": "address"
        }
      ],
      "name": "Swap",
      "type": "event"
    },
    {
      "anonymous": false,
      "inputs": [
        {
          "indexed": false,
          "internalType": "uint256",
          "name": "reserveA",
          "type": "uint256"
        },
        {
          "indexed": false,
          "internalType": "uint256",
          "name": "reserveB",
          "type": "uint256"
        }
      ],
      "name": "Sync",
      "type": "event"
    },
    {
      "anonymous": false,
      "inputs": [
        {
          "indexed": true,
          "internalType": "address",
          "name": "from",
          "type": "address"
        },
        {
          "indexed": true,
          "internalType": "address",
          "name": "to",
          "type": "address"
        },
        {
          "indexed": false,
          "internalType": "uint256",
          "name": "value",
          "type": "uint256"
        }
      ],
      "name": "Transfer",
      "type": "event"
    },
    {
      "inputs": [],
      "name": "MINIMUM_LIQUIDITY",
      "outputs": [
        {
          "internalType": "uint256",
          "name": "",
          "type": "uint256"
        }
      ],
      "stateMutability": "view",
      "type": "function"
    },
    {
      "inputs": [
        {
          "internalType": "address",
          "name": "owner",
          "type": "address"
        },
        {
          "internalType": "address",
          "name": "spender",
          "type": "address"
        }
      ],
      "name": "allowance",
      "outputs": [
        {
          "internalType": "uint256",
          "name": "",
          "type": "uint256"
        }
      ],
      "stateMutability": "view",
      "type": "function"
    },
    {
      "inputs": [
        {
          "internalType": "address",
          "name": "spender",
          "type": "address"
        },
        {
          "internalType": "uint256",
          "name": "value",
          "type": "uint256"
        }
      ],
      "name": "approve",
      "outputs": [
        {
          "internalType": "bool",
          "name": "",
          "type": "bool"
        }
      ],
      "stateMutability": "nonpayable",
      "type": "function"
    },
    {
      "inputs": [
        {
          "internalType": "address",
          "name": "account",
          "type": "address"
        }
      ],
      "name": "balanceOf",
      "outputs": [
        {
          "internalType": "uint256",
          "name": "",
          "type": "uint256"
        }
      ],
      "stateMutability": "view",
      "type": "function"
    },
    {
      "inputs": [
        {
          "internalType": "address",
          "name": "to",
          "type": "address"
        }
      ],
      "name": "burn",
      "outputs": [
        {
          "internalType": "uint256",
          "name": "amountA",
          "type": "uint256"
        },
        {
          "internalType": "uint256",
          "name": "amountB",
          "type": "uint256"
        }
      ],
      "stateMutability": "nonpayable",
      "type": "function"
    },
    {
      "inputs": [],
      "name": "decimals",
      "outputs": [
        {
          "internalType": "uint8",
          "name": "",
          "type": "uint8"
        }
      ],
      "stateMutability": "view",
      "type": "function"
    },
    {
      "inputs": [],
      "name": "factory",
      "outputs": [
        {
          "internalType": "address",
          "name": "",
          "type": "address"
        }
      ],
      "stateMutability": "view",
      "type": "function"
    },
    {
      "inputs": [],
      "name": "getReserves",
      "outputs": [
        {
          "internalType": "uint256",
          "name": "_reserveA",
          "type": "uint256"
        },
        {
          "internalType": "uint256",
          "name": "_reserveB",
          "type": "uint256"
        },
        {
          "internalType": "uint256",
          "name": "_blockTimestampLast",
          "type": "uint256"
        }
      ],
      "stateMutability": "view",
      "type": "function"
    },
    {
      "inputs": [
        {
          "internalType": "address",
          "name": "_tokenA",
          "type": "address"
        },
        {
          "internalType": "address",
          "name": "_tokenB",
          "type": "address"
        }
      ],
      "name": "initialize",
      "outputs": [],
      "stateMutability": "nonpayable",
      "type": "function"
    },
    {
      "inputs": [],
      "name": "kLast",
      "outputs": [
        {
          "internalType": "uint256",
          "name": "",
          "type": "uint256"
        }
      ],
      "stateMutability": "view",
      "type": "function"
    },
    {
      "inputs": [
        {
          "internalType": "address",
          "name": "to",
          "type": "address"
        }
      ],
      "name": "mint",
      "outputs": [
        {
          "internalType": "uint256",
          "name": "liquidity",
          "type": "uint256"
        }
      ],
      "stateMutability": "nonpayable",
      "type": "function"
    },
    {
      "inputs": [],
      "name": "name",
      "outputs": [
        {
          "internalType": "string",
          "name": "",
          "type": "string"
        }
      ],
      "stateMutability": "view",
      "type": "function"
    },
    {
      "inputs": [
        {
          "internalType": "address",
          "name": "to",
          "type": "address"
        }
      ],
      "name": "skim",
      "outputs": [],
      "stateMutability": "nonpayable",
      "type": "function"
    },
    {
      "inputs": [
        {
          "internalType": "uint256",
          "name": "amountAOut",
          "type": "uint256"
        },
        {
          "internalType": "uint256",
          "name": "amountBOut",
          "type": "uint256"
        },
        {
          "internalType": "address",
          "name": "to",
          "type": "address"
        }
      ],
      "name": "swap",
      "outputs": [],
      "stateMutability": "nonpayable",
      "type": "function"
    },
    {
      "inputs": [],
      "name": "symbol",
      "outputs": [
        {
          "internalType": "string",
          "name": "",
          "type": "string"
        }
      ],
      "stateMutability": "view",
      "type": "function"
    },
    {
      "inputs": [],
      "name": "sync",
      "outputs": [],
      "stateMutability": "nonpayable",
      "type": "function"
    },
    {
      "inputs": [],
      "name": "tokenA",
      "outputs": [
        {
          "internalType": "address",
          "name": "",
          "type": "address"
        }
      ],
      "stateMutability": "view",
      "type": "function"
    },
    {
      "inputs": [],
      "name": "tokenB",
      "outputs": [
        {
          "internalType": "address",
          "name": "",
          "type": "address"
        }
      ],
      "stateMutability": "view",
      "type": "function"
    },
    {
      "inputs": [],
      "name": "totalSupply",
      "outputs": [
        {
          "internalType": "uint256",
          "name": "",
          "type": "uint256"
        }
      ],
      "stateMutability": "view",
      "type": "function"
    },
    {
      "inputs": [
        {
          "internalType": "address",
          "name": "to",
          "type": "address"
        },
        {
          "internalType": "uint256",
          "name": "value",
          "type": "uint256"
        }
      ],
      "name": "transfer",
      "outputs": [
        {
          "internalType": "bool",
          "name": "",
          "type": "bool"
        }
      ],
      "stateMutability": "nonpayable",
      "type": "function"
    },
    {
      "inputs": [
        {
          "internalType": "address",
          "name": "from",
          "type": "address"
        },
        {
          "internalType": "address",
          "name": "to",
          "type": "address"
        },
        {
          "internalType": "uint256",
          "name": "value",
          "type": "uint256"
        }
      ],
      "name": "transferFrom",
      "outputs": [
        {
          "internalType": "bool",
          "name": "",
          "type": "bool"
        }
      ],
      "stateMutability": "nonpayable",
      "type": "function"
    }
  ],
  "bytecode": "0x608060405234801561001057600080fd5b506040518060400160405280600e81526020017f44455820546f6b656e20506169720000000000000000000000000000000000008152506040518060400160405280600681526020017f4445582d54500000000000000000000000000000000000000000000000000000815250816003908161008c919061033d565b50806004908161009c919061033d565b505050600160058190555033600660006101000a81548173ffffffffffffffffffffffffffffffffffffffff021916908373ffffffffffffffffffffffffffffffffffffffff16021790555061040f565b600081519050919050565b7f4e487b7100000000000000000000000000000000000000000000000000000000600052604160045260246000fd5b7f4e487b7100000000000000000000000000000000000000000000000000000000600052602260045260246000fd5b6000600282049050600182168061016e57607f821691505b60208210810361018157610180610127565b5b50919050565b60008190508160005260206000209050919050565b60006020601f8301049050919050565b600082821b905092915050565b6000600883026101e97fffffffffffffffffffffffffffffffffffffffffffffffffffffffffffffffff826101ac565b6101f386836101ac565b95508019841693508086168417925050509392505050565b6000819050919050565b6000819050919050565b600061023a6102356102308461020b565b610215565b61020b565b9050919050565b6000819050919050565b6102548361021f565b61026861026082610241565b8484546101b9565b825550505050565b600090565b61027d610270565b61028881848461024b565b505050565b5b818110156102ac576102a1600082610275565b60018101905061028e565b5050565b601f8211156102f1576102c281610187565b6102cb8461019c565b810160208510156102da578190505b6102ee6102e68561019c565b83018261028d565b50505b505050565b600082821c905092915050565b6000610314600019846008026102f6565b1980831691505092915050565b600061032d8383610303565b9150826002028217905092915050565b610346826100ed565b67ffffffffffffffff81111561035f5761035e6100f8565b5b6103698254610156565b6103748282856102b0565b600060209050601f8311600181146103a75760008415610395578287015190505b61039f8582610321565b865550610407565b601f1984166103b586610187565b60005b828110156103dd578489015182556001820191506020850194506020810190506103b8565b868310156103fa57848901516103f6601f891682610303565b8355505b6001600288020188555050505b505050505050565b612e028061041e6000396000f3fe608060405234801561001057600080fd5b50600436106101375760003560e01c80636d9a640a116100b8578063a9059cbb1161007c578063a9059cbb14610357578063ba9a7a5614610387578063bc25cf77146103a5578063c45a0155146103c1578063dd62ed3e146103df578063fff6cae91461040f57610137565b80636d9a640a1461029e57806370a08231146102ba5780637464fc3d146102ea57806389afcb441461030857806395d89b411461033957610137565b806323b872dd116100ff57806323b872dd146101e6578063313ce56714610216578063485cc955146102345780635f64b55b146102505780636a6278421461026e57610137565b806306fdde031461013c5780630902f1ac1461015a578063095ea7b31461017a5780630fc63d10146101aa57806318160ddd146101c8575b600080fd5b610144610419565b6040516101519190612358565b60405180910390f35b6101626104ab565b60405161017193929190612393565b60405180910390f35b610194600480360381019061018f9190612459565b6104c4565b6040516101a191906124b4565b60405180910390f35b6101b26104e7565b6040516101bf91906124de565b60405180910390f35b6101d061050d565b6040516101dd91906124f9565b60405180910390f35b61020060048036038101906101fb9190612514565b610517565b60405161020d91906124b4565b60405180910390f35b61021e610546565b60405161022b9190612583565b60405180910390f35b61024e6004803603810190610249919061259e565b61054f565b005b610258610665565b60405161026591906124de565b60405180910390f35b610288600480360381019061028391906125de565b61068b565b60405161029591906124f9565b60405180910390f35b6102b860048036038101906102b3919061260b565b61096f565b005b6102d460048036038101906102cf91906125de565b610e3e565b6040516102e191906124f9565b60405180910390f35b6102f2610e86565b6040516102ff91906124f9565b60405180910390f35b610322600480360381019061031d91906125de565b610e8c565b60405161033092919061265e565b60405180910390f35b610341611255565b60405161034e9190612358565b60405180910390f35b610371600480360381019061036c9190612459565b6112e7565b60405161037e91906124b4565b60405180910390f35b61038f61130a565b60405161039c91906124f9565b60405180910390f35b6103bf60048036038101906103ba91906125de565b611310565b005b6103c9611495565b6040516103d691906124de565b60405180910390f35b6103f960048036038101906103f4919061259e565b6114bb565b60405161040691906124f9565b60405180910390f35b610417611542565b005b606060038054610428906126b6565b80601f0160208091040260200160405190810160405280929190818152602001828054610454906126b6565b80156104a15780601f10610476576101008083540402835291602001916104a1565b820191906000526020600020905b81548152906001019060200180831161048457829003601f168201915b5050505050905090565b6000806000600a549250600b549150600c549050909192565b6000806104cf611694565b90506104dc81858561169c565b600191505092915050565b600760009054906101000a900473ffffffffffffffffffffffffffffffffffffffff1681565b6000600254905090565b600080610522611694565b905061052f8582856116ae565b61053a858585611743565b60019150509392505050565b60006012905090565b600660009054906101000a900473ffffffffffffffffffffffffffffffffffffffff1673ffffffffffffffffffffffffffffffffffffffff163373ffffffffffffffffffffffffffffffffffffffff16146105df576040517f08c379a00000000000000000000000000000000000000000000000000000000081526004016105d690612733565b60405180910390fd5b81600760006101000a81548173ffffffffffffffffffffffffffffffffffffffff021916908373ffffffffffffffffffffffffffffffffffffffff16021790555080600860006101000a81548173ffffffffffffffffffffffffffffffffffffffff021916908373ffffffffffffffffffffffffffffffffffffffff1602179055505050565b600860009054906101000a900473ffffffffffffffffffffffffffffffffffffffff1681565b6000610695611837565b6000806106a06104ab565b50915091506000600760009054906101000a900473ffffffffffffffffffffffffffffffffffffffff1673ffffffffffffffffffffffffffffffffffffffff166370a08231306040518263ffffffff1660e01b815260040161070291906124de565b602060405180830381865afa15801561071f573d6000803e3d6000fd5b505050506040513d601f19601f820116820180604052508101906107439190612768565b90506000600860009054906101000a900473ffffffffffffffffffffffffffffffffffffffff1673ffffffffffffffffffffffffffffffffffffffff166370a08231306040518263ffffffff1660e01b81526004016107a291906124de565b602060405180830381865afa1580156107bf573d6000803e3d6000fd5b505050506040513d601f19601f820116820180604052508101906107e39190612768565b9050600084836107f391906127c4565b90506000848361080391906127c4565b90506000610811878761187d565b9050600061081d61050d565b90506000810361085d576103e861083e848661083991906127f8565b611a04565b61084891906127c4565b985061085861dead6103e8611ba1565b610896565b61089388828661086d91906127f8565b6108779190612869565b88838661088491906127f8565b61088e9190612869565b611c23565b98505b600089116108d9576040517f08c379a00000000000000000000000000000000000000000000000000000000081526004016108d0906128e6565b60405180910390fd5b6108e38a8a611ba1565b6108ed8686611c3a565b811561090a57600b54600a5461090391906127f8565b6009819055505b3373ffffffffffffffffffffffffffffffffffffffff167f4c209b5fc8ad50758f13e2e1088ba56a560dff690a1c6fef26394f4c03821c4f858560405161095292919061265e565b60405180910390a2505050505050505061096a611c90565b919050565b610977611837565b60008311806109865750600082115b6109c5576040517f08c379a00000000000000000000000000000000000000000000000000000000081526004016109bc90612952565b60405180910390fd5b6000806109d06104ab565b509150915081851080156109e357508084105b610a22576040517f08c379a0000000000000000000000000000000000000000000000000000000008152600401610a19906129be565b60405180910390fd5b6000600760009054906101000a900473ffffffffffffffffffffffffffffffffffffffff1690506000600860009054906101000a900473ffffffffffffffffffffffffffffffffffffffff1690508173ffffffffffffffffffffffffffffffffffffffff168573ffffffffffffffffffffffffffffffffffffffff1614158015610ad857508073ffffffffffffffffffffffffffffffffffffffff168573ffffffffffffffffffffffffffffffffffffffff1614155b610b17576040517f08c379a0000000000000000000000000000000000000000000000000000000008152600401610b0e90612a2a565b60405180910390fd5b6000871115610b2c57610b2b828689611c9a565b5b6000861115610b4157610b40818688611c9a565b5b60008273ffffffffffffffffffffffffffffffffffffffff166370a08231306040518263ffffffff1660e01b8152600401610b7c91906124de565b602060405180830381865afa158015610b99573d6000803e3d6000fd5b505050506040513d601f19601f82011682018060405250810190610bbd9190612768565b905060008273ffffffffffffffffffffffffffffffffffffffff166370a08231306040518263ffffffff1660e01b8152600401610bfa91906124de565b602060405180830381865afa158015610c17573d6000803e3d6000fd5b505050506040513d601f19601f82011682018060405250810190610c3b9190612768565b905060008987610c4b91906127c4565b8311610c58576000610c70565b8987610c6491906127c4565b83610c6f91906127c4565b5b905060008987610c8091906127c4565b8311610c8d576000610ca5565b8987610c9991906127c4565b83610ca491906127c4565b5b90506000821180610cb65750600081115b610cf5576040517f08c379a0000000000000000000000000000000000000000000000000000000008152600401610cec90612a96565b60405180910390fd5b6000600283610d0491906127f8565b6103e886610d1291906127f8565b610d1c91906127c4565b90506000600283610d2d91906127f8565b6103e886610d3b91906127f8565b610d4591906127c4565b9050620f4240600b54600a54610d5b91906127f8565b610d6591906127f8565b8183610d7191906127f8565b1015610db2576040517f08c379a0000000000000000000000000000000000000000000000000000000008152600401610da990612b02565b60405180910390fd5b5050610dbe8484611c3a565b8873ffffffffffffffffffffffffffffffffffffffff163373ffffffffffffffffffffffffffffffffffffffff167fd78ad95fa46c994b6551d0da85fc275fe613ce37657fb8d5e3d130840159d82284848f8f604051610e219493929190612b22565b60405180910390a35050505050505050610e39611c90565b505050565b60008060008373ffffffffffffffffffffffffffffffffffffffff1673ffffffffffffffffffffffffffffffffffffffff168152602001908152602001600020549050919050565b60095481565b600080610e97611837565b600080610ea26104ab565b50915091506000600760009054906101000a900473ffffffffffffffffffffffffffffffffffffffff1690506000600860009054906101000a900473ffffffffffffffffffffffffffffffffffffffff16905060008273ffffffffffffffffffffffffffffffffffffffff166370a08231306040518263ffffffff1660e01b8152600401610f3091906124de565b602060405180830381865afa158015610f4d573d6000803e3d6000fd5b505050506040513d601f19601f82011682018060405250810190610f719190612768565b905060008273ffffffffffffffffffffffffffffffffffffffff166370a08231306040518263ffffffff1660e01b8152600401610fae91906124de565b602060405180830381865afa158015610fcb573d6000803e3d6000fd5b505050506040513d601f19601f82011682018060405250810190610fef9190612768565b90506000610ffc30610e3e565b9050600061100a888861187d565b9050600061101661050d565b905080858461102591906127f8565b61102f9190612869565b9a5080848461103e91906127f8565b6110489190612869565b995060008b11801561105a575060008a115b611099576040517f08c379a000000000000000000000000000000000000000000000000000000000815260040161109090612bb3565b60405180910390fd5b6110a33084611e24565b6110ae878d8d611c9a565b6110b9868d8c611c9a565b8673ffffffffffffffffffffffffffffffffffffffff166370a08231306040518263ffffffff1660e01b81526004016110f291906124de565b602060405180830381865afa15801561110f573d6000803e3d6000fd5b505050506040513d601f19601f820116820180604052508101906111339190612768565b94508573ffffffffffffffffffffffffffffffffffffffff166370a08231306040518263ffffffff1660e01b815260040161116e91906124de565b602060405180830381865afa15801561118b573d6000803e3d6000fd5b505050506040513d601f19601f820116820180604052508101906111af9190612768565b93506111bb8585611c3a565b81156111d857600b54600a546111d191906127f8565b6009819055505b8b73ffffffffffffffffffffffffffffffffffffffff163373ffffffffffffffffffffffffffffffffffffffff167fdccd412f0b1252819cb1fd330b93224ca42612892bb3f4f789976e6d819364968d8d60405161123792919061265e565b60405180910390a3505050505050505050611250611c90565b915091565b606060048054611264906126b6565b80601f0160208091040260200160405190810160405280929190818152602001828054611290906126b6565b80156112dd5780601f106112b2576101008083540402835291602001916112dd565b820191906000526020600020905b8154815290600101906020018083116112c057829003601f168201915b5050505050905090565b6000806112f2611694565b90506112ff818585611743565b600191505092915050565b6103e881565b611318611837565b6000600760009054906101000a900473ffffffffffffffffffffffffffffffffffffffff1690506000600860009054906101000a900473ffffffffffffffffffffffffffffffffffffffff1690506113f78284600a548573ffffffffffffffffffffffffffffffffffffffff166370a08231306040518263ffffffff1660e01b81526004016113a791906124de565b602060405180830381865afa1580156113c4573d6000803e3d6000fd5b505050506040513d601f19601f820116820180604052508101906113e89190612768565b6113f291906127c4565b611c9a565b6114888184600b548473ffffffffffffffffffffffffffffffffffffffff166370a08231306040518263ffffffff1660e01b815260040161143891906124de565b602060405180830381865afa158015611455573d6000803e3d6000fd5b505050506040513d601f19601f820116820180604052508101906114799190612768565b61148391906127c4565b611c9a565b5050611492611c90565b50565b600660009054906101000a900473ffffffffffffffffffffffffffffffffffffffff1681565b6000600160008473ffffffffffffffffffffffffffffffffffffffff1673ffffffffffffffffffffffffffffffffffffffff16815260200190815260200160002060008373ffffffffffffffffffffffffffffffffffffffff1673ffffffffffffffffffffffffffffffffffffffff16815260200190815260200160002054905092915050565b61154a611837565b61168a600760009054906101000a900473ffffffffffffffffffffffffffffffffffffffff1673ffffffffffffffffffffffffffffffffffffffff166370a08231306040518263ffffffff1660e01b81526004016115a891906124de565b602060405180830381865afa1580156115c5573d6000803e3d6000fd5b505050506040513d601f19601f820116820180604052508101906115e99190612768565b600860009054906101000a900473ffffffffffffffffffffffffffffffffffffffff1673ffffffffffffffffffffffffffffffffffffffff166370a08231306040518263ffffffff1660e01b815260040161164491906124de565b602060405180830381865afa158015611661573d6000803e3d6000fd5b505050506040513d601f19601f820116820180604052508101906116859190612768565b611c3a565b611692611c90565b565b600033905090565b6116a98383836001611ea6565b505050565b60006116ba84846114bb565b90507fffffffffffffffffffffffffffffffffffffffffffffffffffffffffffffffff81101561173d578181101561172d578281836040517ffb8f41b200000000000000000000000000000000000000000000000000000000815260040161172493929190612bd3565b60405180910390fd5b61173c84848484036000611ea6565b5b50505050565b600073ffffffffffffffffffffffffffffffffffffffff168373ffffffffffffffffffffffffffffffffffffffff16036117b55760006040517f96c6fd1e0000000000000000000000000000000000000000000000000000000081526004016117ac91906124de565b60405180910390fd5b600073ffffffffffffffffffffffffffffffffffffffff168273ffffffffffffffffffffffffffffffffffffffff16036118275760006040517fec442f0500000000000000000000000000000000000000000000000000000000815260040161181e91906124de565b60405180910390fd5b61183283838361207d565b505050565b600260055403611873576040517f3ee5aeb500000000000000000000000000000000000000000000000000000000815260040160405180910390fd5b6002600581905550565b600080600660009054906101000a900473ffffffffffffffffffffffffffffffffffffffff1673ffffffffffffffffffffffffffffffffffffffff16631fdfdeab6040518163ffffffff1660e01b8152600401602060405180830381865afa1580156118ed573d6000803e3d6000fd5b505050506040513d601f19601f820116820180604052508101906119119190612c1f565b9050600073ffffffffffffffffffffffffffffffffffffffff168173ffffffffffffffffffffffffffffffffffffffff16141591506000600954905082156119ea57600081146119e5576000611971858761196c91906127f8565b611a04565b9050600061197e83611a04565b9050808211156119e257600060098361199791906127f8565b826119a29190612c4c565b82846119ae91906127c4565b6119b661050d565b6119c091906127f8565b6119ca9190612869565b905060008111156119e0576119df8582611ba1565b5b505b50505b6119fc565b600081146119fb5760006009819055505b5b505092915050565b600060018211611a1657819050611b9c565b60008290506000600190507001000000000000000000000000000000008210611a4857608082901c9150604081901b90505b680100000000000000008210611a6757604082901c9150602081901b90505b6401000000008210611a8257602082901c9150601081901b90505b620100008210611a9b57601082901c9150600881901b90505b6101008210611ab357600882901c9150600481901b90505b60108210611aca57600482901c9150600281901b90505b60048210611ada57600181901b90505b600181600302901c90506001818581611af657611af561283a565b5b048201901c90506001818581611b0f57611b0e61283a565b5b048201901c90506001818581611b2857611b2761283a565b5b048201901c90506001818581611b4157611b4061283a565b5b048201901c90506001818581611b5a57611b5961283a565b5b048201901c90506001818581611b7357611b7261283a565b5b048201901c9050611b95818581611b8d57611b8c61283a565b5b0482116122a2565b8103925050505b919050565b600073ffffffffffffffffffffffffffffffffffffffff168273ffffffffffffffffffffffffffffffffffffffff1603611c135760006040517fec442f05000000000000000000000000000000000000000000000000000000008152600401611c0a91906124de565b60405180910390fd5b611c1f6000838361207d565b5050565b6000611c3282841084846122ae565b905092915050565b81600a8190555080600b8190555042600c819055507fcf2aa50876cdfbb541206f89af0ee78d44a2abf8d328e37fa4917f982149848a600a54600b54604051611c8492919061265e565b60405180910390a15050565b6001600581905550565b6000808473ffffffffffffffffffffffffffffffffffffffff166040518060400160405280601981526020017f7472616e7366657228616464726573732c75696e743235362900000000000000815250805190602001208585604051602401611d04929190612c80565b604051602081830303815290604052907bffffffffffffffffffffffffffffffffffffffffffffffffffffffff19166020820180517bffffffffffffffffffffffffffffffffffffffffffffffffffffffff8381831617835250505050604051611d6e9190612cf0565b6000604051808303816000865af19150503d8060008114611dab576040519150601f19603f3d011682016040523d82523d6000602084013e611db0565b606091505b5091509150818015611dde5750600081511480611ddd575080806020019051810190611ddc9190612d33565b5b5b611e1d576040517f08c379a0000000000000000000000000000000000000000000000000000000008152600401611e1490612dac565b60405180910390fd5b5050505050565b600073ffffffffffffffffffffffffffffffffffffffff168273ffffffffffffffffffffffffffffffffffffffff1603611e965760006040517f96c6fd1e000000000000000000000000000000000000000000000000000000008152600401611e8d91906124de565b60405180910390fd5b611ea28260008361207d565b5050565b600073ffffffffffffffffffffffffffffffffffffffff168473ffffffffffffffffffffffffffffffffffffffff1603611f185760006040517fe602df05000000000000000000000000000000000000000000000000000000008152600401611f0f91906124de565b60405180910390fd5b600073ffffffffffffffffffffffffffffffffffffffff168373ffffffffffffffffffffffffffffffffffffffff1603611f8a5760006040517f94280d62000000000000000000000000000000000000000000000000000000008152600401611f8191906124de565b60405180910390fd5b81600160008673ffffffffffffffffffffffffffffffffffffffff1673ffffffffffffffffffffffffffffffffffffffff16815260200190815260200160002060008573ffffffffffffffffffffffffffffffffffffffff1673ffffffffffffffffffffffffffffffffffffffff168152602001908152602001600020819055508015612077578273ffffffffffffffffffffffffffffffffffffffff168473ffffffffffffffffffffffffffffffffffffffff167f8c5be1e5ebec7d5bd14f71427d1e84f3dd0314c0f7b2291e5b200ac8c7c3b9258460405161206e91906124f9565b60405180910390a35b50505050565b600073ffffffffffffffffffffffffffffffffffffffff168373ffffffffffffffffffffffffffffffffffffffff16036120cf5780600260008282546120c39190612c4c565b925050819055506121a2565b60008060008573ffffffffffffffffffffffffffffffffffffffff1673ffffffffffffffffffffffffffffffffffffffff1681526020019081526020016000205490508181101561215b578381836040517fe450d38c00000000000000000000000000000000000000000000000000000000815260040161215293929190612bd3565b60405180910390fd5b8181036000808673ffffffffffffffffffffffffffffffffffffffff1673ffffffffffffffffffffffffffffffffffffffff16815260200190815260200160002081905550505b600073ffffffffffffffffffffffffffffffffffffffff168273ffffffffffffffffffffffffffffffffffffffff16036121eb5780600260008282540392505081905550612238565b806000808473ffffffffffffffffffffffffffffffffffffffff1673ffffffffffffffffffffffffffffffffffffffff168152602001908152602001600020600082825401925050819055505b8173ffffffffffffffffffffffffffffffffffffffff168373ffffffffffffffffffffffffffffffffffffffff167fddf252ad1be2c89b69c2b068fc378daa952ba7f163c4a11628f55a4df523b3ef8360405161229591906124f9565b60405180910390a3505050565b60008115159050919050565b60006122b9846122a2565b82841802821890509392505050565b600081519050919050565b600082825260208201905092915050565b60005b838110156123025780820151818401526020810190506122e7565b60008484015250505050565b6000601f19601f8301169050919050565b600061232a826122c8565b61233481856122d3565b93506123448185602086016122e4565b61234d8161230e565b840191505092915050565b60006020820190508181036000830152612372818461231f565b905092915050565b6000819050919050565b61238d8161237a565b82525050565b60006060820190506123a86000830186612384565b6123b56020830185612384565b6123c26040830184612384565b949350505050565b600080fd5b600073ffffffffffffffffffffffffffffffffffffffff82169050919050565b60006123fa826123cf565b9050919050565b61240a816123ef565b811461241557600080fd5b50565b60008135905061242781612401565b92915050565b6124368161237a565b811461244157600080fd5b50565b6000813590506124538161242d565b92915050565b600080604083850312156124705761246f6123ca565b5b600061247e85828601612418565b925050602061248f85828601612444565b9150509250929050565b60008115159050919050565b6124ae81612499565b82525050565b60006020820190506124c960008301846124a5565b92915050565b6124d8816123ef565b82525050565b60006020820190506124f360008301846124cf565b92915050565b600060208201905061250e6000830184612384565b92915050565b60008060006060848603121561252d5761252c6123ca565b5b600061253b86828701612418565b935050602061254c86828701612418565b925050604061255d86828701612444565b9150509250925092565b600060ff82169050919050565b61257d81612567565b82525050565b60006020820190506125986000830184612574565b92915050565b600080604083850312156125b5576125b46123ca565b5b60006125c385828601612418565b92505060206125d485828601612418565b9150509250929050565b6000602082840312156125f4576125f36123ca565b5b600061260284828501612418565b91505092915050565b600080600060608486031215612624576126236123ca565b5b600061263286828701612444565b935050602061264386828701612444565b925050604061265486828701612418565b9150509250925092565b60006040820190506126736000830185612384565b6126806020830184612384565b9392505050565b7f4e487b7100000000000000000000000000000000000000000000000000000000600052602260045260246000fd5b600060028204905060018216806126ce57607f821691505b6020821081036126e1576126e0612687565b5b50919050565b7f4e4f545f464143544f5259000000000000000000000000000000000000000000600082015250565b600061271d600b836122d3565b9150612728826126e7565b602082019050919050565b6000602082019050818103600083015261274c81612710565b9050919050565b6000815190506127628161242d565b92915050565b60006020828403121561277e5761277d6123ca565b5b600061278c84828501612753565b91505092915050565b7f4e487b7100000000000000000000000000000000000000000000000000000000600052601160045260246000fd5b60006127cf8261237a565b91506127da8361237a565b92508282039050818111156127f2576127f1612795565b5b92915050565b60006128038261237a565b915061280e8361237a565b925082820261281c8161237a565b9150828204841483151761283357612832612795565b5b5092915050565b7f4e487b7100000000000000000000000000000000000000000000000000000000600052601260045260246000fd5b60006128748261237a565b915061287f8361237a565b92508261288f5761288e61283a565b5b828204905092915050565b7f494e53554646494349454e545f4c49515549444954595f4d494e544544000000600082015250565b60006128d0601d836122d3565b91506128db8261289a565b602082019050919050565b600060208201905081810360008301526128ff816128c3565b9050919050565b7f494e56414c49445f4f55545055545f414d4f554e540000000000000000000000600082015250565b600061293c6015836122d3565b915061294782612906565b602082019050919050565b6000602082019050818103600083015261296b8161292f565b9050919050565b7f494e53554646494349454e545f52455345525645000000000000000000000000600082015250565b60006129a86014836122d3565b91506129b382612972565b602082019050919050565b600060208201905081810360008301526129d78161299b565b9050919050565b7f494e56414c49445f4f55545055545f4144445245535300000000000000000000600082015250565b6000612a146016836122d3565b9150612a1f826129de565b602082019050919050565b60006020820190508181036000830152612a4381612a07565b9050919050565b7f494e53554646494349454e545f494e5055545f414d4f554e5400000000000000600082015250565b6000612a806019836122d3565b9150612a8b82612a4a565b602082019050919050565b60006020820190508181036000830152612aaf81612a73565b9050919050565b7f494e53554646494349454e545f4c495155494449545900000000000000000000600082015250565b6000612aec6016836122d3565b9150612af782612ab6565b602082019050919050565b60006020820190508181036000830152612b1b81612adf565b9050919050565b6000608082019050612b376000830187612384565b612b446020830186612384565b612b516040830185612384565b612b5e6060830184612384565b95945050505050565b7f494e53554646494349454e545f4255524e494e475f4c49515549444954590000600082015250565b6000612b9d601e836122d3565b9150612ba882612b67565b602082019050919050565b60006020820190508181036000830152612bcc81612b90565b9050919050565b6000606082019050612be860008301866124cf565b612bf56020830185612384565b612c026040830184612384565b949350505050565b600081519050612c1981612401565b92915050565b600060208284031215612c3557612c346123ca565b5b6000612c4384828501612c0a565b91505092915050565b6000612c578261237a565b9150612c628361237a565b9250828201905080821115612c7a57612c79612795565b5b92915050565b6000604082019050612c9560008301856124cf565b612ca26020830184612384565b9392505050565b600081519050919050565b600081905092915050565b6000612cca82612ca9565b612cd48185612cb4565b9350612ce48185602086016122e4565b80840191505092915050565b6000612cfc8284612cbf565b915081905092915050565b612d1081612499565b8114612d1b57600080fd5b50565b600081519050612d2d81612d07565b92915050565b600060208284031215612d4957612d486123ca565b5b6000612d5784828501612d1e565b91505092915050565b7f5452414e534645525f4641494c45440000000000000000000000000000000000600082015250565b6000612d96600f836122d3565b9150612da182612d60565b602082019050919050565b60006020820190508181036000830152612dc581612d89565b905091905056fea26469706673582212206b31c549ff716e5e90b27eae9d6bf4976bb02e1c3fd9b03629e62bf4bba3558264736f6c634300081c0033",
  "linkReferences": {},
  "deployedLinkReferences": {}
}